:04000000E5EF00F038
:1001CA0000EE60F01E0EEE6AE806FDE100EE53F066
:1001DA000D0EEE6AE806FDE1000188EF03F0000E5D
:1001EA00046E000E036EF40EBB6E040000D09EA2D5
:1001FA0001D001D0FCD79E92034A042A0150035C25
:10020A0002500458D8A001D001D0EFD700D0120074
:10021A00096E000E0A6E0950000E0C6E000E0B6E6F
:10022A0000D00BC001F008C002F0DFEC06F00A6E45
:10023A000B4A0C2A0C0E0B5C000E0C58D8A001D0ED
:10024A0001D0EFD70A6601D001D0EBD700D0120057
:10025A00560ED36E000E896E0F0E926EC00E896E08
:10026A00000E8A6EC70E936E000E8A6E0F010F0182
:10027A003991000E8B6E800E946E000E8B6E000EFE
:10028A008C6E900E956E000E8C6E8C8A000E8D6EA2
:10029A00080E966E000E8D6EBA68BB68010EC26EAD
:1002AA00000EC16EFE0EC06E120053C003F054C0A1
:1002BA0004F0031E041E034A042A720E0324056E68
:1002CA00010E0420066E0650800A800F0B0ED8B469
:1002DA00055CD8A001D001D005D0000E066E000E34
:1002EA00056E10D00650800A810FF60ED8B4055C50
:1002FA00D8B001D001D006D0000E066E000E056EF1
:10030A0001D000D005C001F006C002F000D01200F2
:10031A00016E010E00010001756F0150016E610E40
:10032A0000010001766F0150016E090E0001000103
:10033A00776F0150016E210E00010001786F0150A4
:10034A00016E050E00010001796F0150016E610E08
:10035A00000100017A6F0150016E090E00010001CF
:10036A007B6F0150016E290E000100017C6F015064
:10037A00016E4D0E000100017D6F015000D0120088
:10038A00000E026E040E016EF4EC00F00B6E020E0B
:10039A00086E0B505CEC0CF0000E026E040E016E3F
:1003AA00F4EC00F00B6E030E086E0B505CEC0CF0D4
:1003BA00000E026E040E016EF4EC00F00B6E040ED9
:1003CA00086E0B505CEC0CF0000E026E040E016E0F
:1003DA00F4EC00F00B6E050E086E0B505CEC0CF0A2
:1003EA00000E026E040E016EF4EC00F00B6E060EA7
:1003FA00086E0B505CEC0CF0000E026E040E016EDF
:10040A00F4EC00F01200000E0A6E000E0B6E000EE5
:10041A000C6E000E0D6E0850051006100710D8B4A9
:10042A0001D001D035D0096E010E0E6E095007D0E9
:10043A00D89005360636073608360E2A00D008AE9A
:10044A0001D001D0F5D701D000D0D8900A360B36AA
:10045A000C360D360550015C0650025807500358F9
:10046A0008500458D8A001D001D00AD00550015E26
:10047A000650025A0750035A0850045A0A8000D0FC
:10048A00D89008320732063205320E2EDED700D057
:10049A000AC001F00BC002F00CC003F00DC004F05A
:1004AA0012005C0E575C030E5858D8B001D001D028
:1004BA0008D04A0E575C010E5858D8B001D001D066
:1004CA000DD08D908D928998899A0D6E010E5E6E6F
:1004DA000D500D6E010E5F6E0D5000D0300E575C40
:1004EA00010E5858D8A001D001D009D06E0E575C21
:1004FA00030E5858D8A001D001D012D000D00D6EEA
:10050A00000E086E0D500DEC01F00D6E0C0E016E12
:10051A000D500E6E010E026E0E50DFEC06F00FD07B
:10052A000D6E0C0E016E0D500E6E000E026E0E5008
:10053A00DFEC06F00D6E000E5F6E0D5000D012005B
:10054A004D6E030E4E6E4D504EC05DF0000E026EA3
:10055A00020E016EF4EC00F04FEC0AF0740E00018A
:10056A000001705D010E00017159D8A001D001D0BF
:10057A0049D08998899A000E026E010E016EF4EC38
:10058A0000F08D808D828C9A000E026E040E016E30
:10059A00F4EC00F04FEC0AF0800E535C010E545854
:1005AA00D8A001D001D009D04D6E000E4E6E4D502C
:1005BA004D6E010E5E6E4D502ED08D908D92000EB6
:1005CA00026E010E016EF4EC00F08988898A000E31
:1005DA00026E040E016EF4EC00F04FEC0AF0800E8D
:1005EA00535C010E5458D8A001D001D014D04D6EDE
:1005FA00010E4E6E4D504D6E010E5E6E4D500BD07B
:10060A000AD009D04D6E030E4E6E4D504D6E010E3E
:10061A005E6E4D5000D04EC05DF04E5000D01200BC
:10062A00000E266E000E256E41D00001000E266EC9
:10063A000001750E256E57D00001000E266E0001CE
:10064A00760E256E50D00001000E266E0001770E40
:10065A00256E49D00001000E266E0001780E256E27
:10066A0042D00001000E266E0001790E256E3BD0A5
:10067A000001000E266E00017A0E256E34D00001AC
:10068A00000E266E00017B0E256E2DD00001000E95
:10069A00266E00017C0E256E26D00001000E266E05
:1006AA0000017D0E256E1FD01ED01DD02250000ADB
:1006BA00D8B4BBD7010AD8B4BFD7030AD8B4CAD7AB
:1006CA00010AD8B4C0D7070AD8B4CBD7010AD8B41C
:1006DA00CFD7030AD8B4DAD7010AD8B4D0D70F0AC9
:1006EA00D8B4DBD700D025C00FF026C010F023C045
:1006FA0011F024C012F0000E146E010E136EEEEC0F
:10070A0004F000D01200506E000E526E5050506E1F
:10071A00000E5D6E50502DEC01F08DEC01F08C8ACC
:10072A008D908D928998899A506E010E086E50505C
:10073A000DEC01F0506E0C0E016E5050516E010E10
:10074A00026E5150DFEC06F0000E026E080E016ECA
:10075A00F4EC00F0506E000E086E50500DEC01F0F3
:10076A00506E0C0E016E5050516E000E026E5150BA
:10077A00DFEC06F04FEC0AF05AEC01F001C068F029
:10078A0002C069F0A5EC02F0526E00D0000E026EB3
:10079A00000E016EF4EC00F017D08C8AA7EC07F07B
:1007AA00526EF4D78C8AA7EC07F0526EEFD78C8A78
:1007BA0097EC08F0526EEAD78C8A97EC08F0526EE2
:1007CA00E5D7E4D7E3D7E2D75250000AD8B4E5D741
:1007DA00010AD8B4E7D7030AD8B4E9D7010AD8B4CA
:1007EA00EBD7070AD8B4D2D7D1D7D0D7CFD700EF13
:1007FA0000F05DC00CF00B6E020E5D6E0B50050E24
:10080A005B5C020E5C58D8A001D001D007D00B6EF9
:10081A00060E086E0B505CEC0CF060D0F70E5B5CB9
:10082A00010E5C58D8A001D001D007D00B6E050E7E
:10083A00086E0B505CEC0CF051D0EE0E5B5C010EB6
:10084A005C58D8A001D001D007D00B6E040E086EF8
:10085A000B505CEC0CF042D0E50E5B5C010E5C5870
:10086A00D8A001D001D007D00B6E030E086E0B5032
:10087A005CEC0CF033D0D40E5B5C010E5C58D8A053
:10088A0001D001D007D00B6E020E086E0B505CEC43
:10089A000CF024D0880E5B5C010E5C58D8A001D005
:1008AA0001D007D00B6E010E086E0B505CEC0CF0F9
:1008BA0015D0870E5B5C010E5C58D8B001D001D010
:1008CA000DD00B6E000E086E0B505CEC0CF006D0CF
:1008DA0005D004D003D002D001D000D00CC05DF006
:1008EA0012005DC00CF00B6E030E5D6E0B50050E10
:1008FA00595C020E5A58D8A001D001D007D00B6E0D
:10090A00060E086E0B505CEC0CF060D0F70E595CCA
:10091A00010E5A58D8A001D001D007D00B6E050E8F
:10092A00086E0B505CEC0CF051D0EE0E595C010EC7
:10093A005A58D8A001D001D007D00B6E040E086E09
:10094A000B505CEC0CF042D0E50E595C010E5A5883
:10095A00D8A001D001D007D00B6E030E086E0B5041
:10096A005CEC0CF033D0D40E595C010E5A58D8A066
:10097A0001D001D007D00B6E020E086E0B505CEC52
:10098A000CF024D0880E595C010E5A58D8A001D018
:10099A0001D007D00B6E010E086E0B505CEC0CF008
:1009AA0015D0870E595C010E5A58D8B001D001D023
:1009BA000DD00B6E000E086E0B505CEC0CF006D0DE
:1009CA0005D004D003D002D001D000D00CC05DF015
:1009DA001200000E1E6E000E1D6E000E196E000E25
:1009EA001A6E000E1B6E000E1C6E000E206E000E9C
:1009FA001F6E156E000E216E155010500F10D8B4D0
:100A0A0001D001D007D012501110D8A401D001D0C2
:100A1A000ED000D0156E020E216E155011C0D9FFEE
:100A2A0012C0DAFF000EDE6E000EDD6E00D0216607
:100A3A0001D001D04BD000D00FC0D9FF10C0DAFFCF
:100A4A00DF50C26EC28200D0C2B201D001D0FCD740
:100A5A009E9CC4CF1FF0206A1F50166E156A000EA6
:100A6A001514176E030E1614186EC35017101F6E46
:100A7A001850206E1F50192620501A22000E1B22D1
:100A8A00000E1C221D4A1E2A13501D5C14501E58AB
:100A9A00D8A001D001D0D0D700D019C001F01AC017
:100AAA0002F01BC003F01CC004F013C005F014C010
:100ABA0006F0076A086A08EC02F011C0D9FF12C0F2
:100ACA00DAFF01C0DEFF02C0DDFF00D0215000D0F6
:100ADA001200710E595C000E5A58D8A001D001D0EC
:100AEA0016D0000100017205D8A401D001D00FD0A0
:100AFA000D6E030E5D6E0D500D6E010E5E6E0D5085
:100B0A000D6E000E00010001726F0D5000D05C0ED8
:100B1A00555C030E5658D8B001D001D009D04A0E00
:100B2A00555C010E5658D8B001D001D01CD000D067
:100B3A00700E595C000E5A58D8A001D001D013D0BB
:100B4A008D908D928998899A0D6E010E5F6E0D5067
:100B5A000D6E000E00010001726F0D500D6E010E38
:100B6A005E6E0D5000D0300E555C010E5658D8A05E
:100B7A0001D001D009D06E0E555C030E5658D8A08C
:100B8A0001D001D04CD000D0710E595C000E5A58D9
:100B9A00D8A001D001D017D00D6E000E00010001BF
:100BAA00726F0D500D6E000E086E0D500DEC01F0B7
:100BBA000D6E0C0E016E0D500E6E010E026E0E5071
:100BCA00DFEC06F000D0710E595C000E5A58D8B00E
:100BDA0001D001D033D000010001726701D001D0E9
:100BEA002DD0899A8D8089988D920D6E010E000103
:100BFA000001726F0D500D6E020E5D6E0D500D6E7E
:100C0A00000E5F6E0D500D6E0C0E016E0D500E6EC5
:100C1A00000E026E0E50DFEC06F010D00FD00D6EF3
:100C2A000C0E016E0D500E6E000E026E0E50DFECB1
:100C3A0006F00D6E000E5F6E0D5000D01200010E10
:100C4A00575C020E5858D8A001D001D01AD0010E14
:100C5A00555C020E5658D8A001D001D012D0250EEC
:100C6A00575C030E5858D8B001D001D00AD0250ECF
:100C7A00555C030E5658D8A001D001D05FD001D0E0
:100C8A0000D00D6E010E5E6E0D50710E595C000E95
:100C9A005A58D8B001D001D037D00D6E000E5D6E13
:100CAA000D500D6E010E5E6E0D500D6E000E5F6ED4
:100CBA000D50010E575C020E5858D8A001D001D031
:100CCA0009D0250E575C030E5858D8A001D001D080
:100CDA0070D000D00D6E010E5F6E0D500D6E0C0EB1
:100CEA00016E0D500E6E010E026E0E50DFEC06F014
:100CFA000D6E000E086E0D500DEC01F08D908D9268
:100D0A008998899A56D055D00D6E000E086E0D50EE
:100D1A000DEC01F08D908D928998899A0D6E0C0ECA
:100D2A00016E0D500E6E010E026E0E50DFEC06F0D3
:100D3A000D6E010E5F6E0D503CD03BD0160E575C07
:100D4A00020E5858D8A001D001D01AD0160E555C00
:100D5A00020E5658D8A001D001D012D0170E575CF7
:100D6A00030E5858D8B001D001D00AD0170E555CDE
:100D7A00030E5658D8A001D001D00BD001D000D014
:100D8A000D6E010E5F6E0D500D6E010E5E6E0D50F2
:100D9A0010D00D6E0C0E016E0D500E6E000E026E0E
:100DAA000E50DFEC06F00D6E000E5F6E0D5001D096
:100DBA0000D01200036E000E046E035077D0036E4B
:100DCA00200E076E03500F0E066E8B0E056E97D01F
:100DDA00036E800E076E03500F0E066E890E056EA7
:100DEA008ED0036E040E076E03500F0E066E8D0E24
:100DFA00056E85D0036E400E076E03500F0E066E09
:100E0A00890E056E7CD0036E010E076E03500F0E1D
:100E1A00066E8B0E056E73D0036E020E076E0350BC
:100E2A000F0E066E8B0E056E6AD0036E040E076EE9
:100E3A0003500F0E066E8B0E056E61D0036E010E07
:100E4A00076E03500F0E066E8C0E056E58D0036E99
:100E5A00080E076E03500F0E066E8B0E056E4FD0EE
:100E6A00036E020E076E03500F0E066E8C0E056E91
:100E7A0046D0036E040E076E03500F0E066E8C0EDC
:100E8A00056E3DD0036E080E076E03500F0E066EF8
:100E9A008C0E056E34D0036E100E076E03500F0EC3
:100EAA00066E8B0E056E2BD02AD029D00150000A6F
:100EBA00D8B48ED7010AD8B494D7030AD8B49AD72B
:100ECA00010AD8B4A0D7070AD8B4A6D7010AD8B459
:100EDA00ACD7030AD8B4B2D7010AD8B4B8D70F0A24
:100EEA00D8B4BED7010AD8B4C4D7030AD8B4CAD76B
:100EFA00010AD8B4D0D7070AD8B461D700D00204FF
:100F0A00D8A401D001D00AD00750FF0A036E05C049
:100F1A00D9FF06C0DAFF0350DF1611D0026601D0EE
:100F2A0001D007D005C0D9FF06C0DAFF0750DF128B
:100F3A0006D0036E020E046E035001D000D0045096
:100F4A0000D012005DC04EF093968A86000E026EA3
:100F5A00020E016EF4EC00F04FEC0AF024EC06F0FD
:100F6A005F04D8A401D001D094D04EC05DF04E5099
:100F7A00D8D0D7D08ED08998899A000E026E010EE9
:100F8A00016EF4EC00F08D808D82000E026E040E6C
:100F9A00016EF4EC00F04FEC0AF0800E535C010E87
:100FAA005458D8B001D001D022D0750E00010001EA
:100FBA00705D010E00017159D8A001D001D017D07F
:100FCA004D6E060E086E4D505CEC0CF08D908D92B5
:100FDA008998899A000E026E140E016EF4EC00F0E4
:100FEA004D6E010E4E6E4D504EC05DF05AD0C5EC9E
:100FFA0001F04EC05DF076EC04F053D052D08D90E3
:10100A008D92000E026E010E016EF4EC00F08988DA
:10101A00898A000E026E040E016EF4EC00F04FECA9
:10102A000AF0800E535C010E5458D8B001D001D09A
:10103A0026D0750E00010001705D010E0001715984
:10104A00D8A001D001D01BD04D6E060E086E4D50AF
:10105A005CEC0CF04D6E030E4E6E4D508D908D92E1
:10106A008998899A000E026E140E016EF4EC00F053
:10107A004EC05DF04D6E010E5E6E4D5012D0C5EC45
:10108A0001F04EC05DF0FEEC03F00BD00AD009D09F
:10109A0008D04E50000AD8B46ED7010AD8B4AFD7D8
:1010AA0000D0000E026E040E016EF4EC00F04FEC5C
:1010BA000AF0740E00010001705D010E0001715901
:1010CA00D8B001D001D029D0000E026E080E016EF0
:1010DA00F4EC00F08D908D928998899A000E026E38
:1010EA00140E016EF4EC00F04D6E030E4E6E4D5070
:1010FA004D6E010E5E6E4D504EC05DF093968A960F
:10110A00000E026E040E016EF4EC00F04D6E000E3D
:10111A0000010001736F4D5000D04EC05DF04E507B
:10112A0000D012005DC04FF0000E026E020E016E7A
:10113A00F4EC00F04FEC0AF056EC02F06EEC05F01D
:10114A005DC04FF0AFD05E04D8A401D001D01FD04B
:10115A005F6601D001D01BD0000E026E040E016E34
:10116A00F4EC00F0899A000E026E010E016EF4ECA6
:10117A0000F08D808998000E026E010E016EF4EC6B
:10118A0000F08D924D6E000E5E6E4D5000D0000E36
:10119A00026E040E016EF4EC00F04FEC0AF0870EBA
:1011AA005B5C010E5C58D8B001D001D083D04D6E83
:1011BA00030E4F6E4D504FC05DF04D6E010E5E6EC8
:1011CA004D508C9A000E026E040E016EF4EC00F083
:1011DA0071D070D05E04D8A401D001D01FD05F6650
:1011EA0001D001D01BD0000E026E040E016EF4EC89
:1011FA0000F08D92000E026E010E016EF4EC00F00A
:10120A0089888D90000E026E010E016EF4EC00F0DA
:10121A00899A4D6E000E5E6E4D5000D0000E026E21
:10122A00040E016EF4EC00F04FEC0AF0870E595CE4
:10123A00010E5A58D8B001D001D011D04D6E020E0D
:10124A004F6E4D504FC05DF04D6E010E5E6E4D50AB
:10125A004D6E010E00010001746F4D5000D0E50E75
:10126A00595C010E5A58D8A001D001D023D00001F0
:10127A0000017405D8A401D001D01CD04D6E000E17
:10128A0000010001746F4D504D6E030E4F6E4D50AC
:10129A004FC05DF04D6E010E5E6E4D500BD00AD000
:1012AA0009D008D04F50020AD8B44DD7010AD8B491
:1012BA0091D700D093968A964FC05DF0670E535C23
:1012CA00010E5458D8B001D001D018D0000E026EC9
:1012DA00040E016EF4EC00F05F6601D001D030D04C
:1012EA006EC05BF06FC05CF06CC059F06DC05AF014
:1012FA00FEEC03F076EC04F023D022D04FEC0AF097
:10130A005BC06EF05CC06FF059C06CF05AC06DF0F3
:10131A00740E00010001705D010E00017159D8B010
:10132A0001D001D007D04D6E000E086E4D500DEC65
:10133A0001F006D0FEEC03F076EC04F001D000D008
:10134A004FC05DF081A001D001D03ED04F50020ABB
:10135A00D8B401D001D007D04F50030AD8A401D085
:10136A0001D032D000D04D6E0C0E016E4D504E6E33
:10137A00010E026E4E50DFEC06F04D6E010E086E45
:10138A004D500DEC01F0000E026E080E016EF4ECE9
:10139A0000F04D6E0C0E016E4D504E6E000E026E38
:1013AA004E50DFEC06F04D6E000E086E4D500DECFF
:1013BA0001F0FEEC03F076EC04F0000E026E500E23
:1013CA00016EF4EC00F000D04FC05DF0740E000125
:1013DA000001705D010E00017159D8A001D001D041
:1013EA0054D04D6E000E4F6E4D504FC05DF04D6E95
:1013FA00010E5E6E4D5000010001736701D001D0ED
:10140A002DD04D6E010E00010001736F4D504D6ECF
:10141A000C0E016E4D504E6E010E026E4E50DFECF8
:10142A0006F04D6E010E086E4D500DEC01F0000EE7
:10143A00026E080E016EF4EC00F04D6E0C0E016E99
:10144A004D504E6E000E026E4E50DFEC06F04D6EA1
:10145A00000E086E4D500DEC01F000D0130E5B5CCF
:10146A00020E5C58D8A001D001D003D0FEEC03F0E4
:10147A0000D0130E595C020E5A58D8A001D001D0E0
:10148A0004D076EC04F001D000D04FC05DF04F508C
:10149A0000D01200000E466E000E456E000E4C6E15
:1014AA00000E4B6E000E296E000E2A6E000E2B6E79
:1014BA00000E2C6E000E2D6E000E2E6E000E2F6E7C
:1014CA00000E306E000E316E000E326E000E336E5C
:1014DA00000E346E000E356E000E366E000E376E3C
:1014EA00000E386E000E396E000E3A6E000E3B6E1C
:1014FA00000E3C6E000E3D6E000E3E6E000E3F6EFC
:10150A00000E406E000E416E000E426E000E436EDB
:10151A00000E446E000E476E000E486E000E496EB5
:10152A00000E4A6E00D0276E000E226E2750000E63
:10153A00246E4B0E236E15EC03F04B5029264C50AB
:10154A002A22000E2B22000E2C22276E040E226E57
:10155A002750000E246E4B0E236E15EC03F04B50F1
:10156A003D264C503E22000E3F22000E4022276E9E
:10157A00020E226E2750000E246E4B0E236E15ECBF
:10158A0003F04B5031264C503222000E3322000E0B
:10159A003422276E060E226E2750000E246E4B0E42
:1015AA00236E15EC03F04B5041264C504222000E9C
:1015BA004322000E4422276E030E226E2750000E8D
:1015CA00246E4B0E236E15EC03F04B5035264C500F
:1015DA003622000E3722000E3822276E010E226EA6
:1015EA002750000E246E4B0E236E15EC03F04B5061
:1015FA002D264C502E22000E2F22000E3022276E4E
:10160A00080E226E2750000E246E4B0E236E15EC28
:10161A0003F04B5039264C503A22000E3B22000E62
:10162A003C22454A462A140E455C000E4658D8A06C
:10163A0001D001D078D700D031C001F032C002F019
:10164A0033C003F034C004F0140E056E000E066EAB
:10165A00000E076E000E086E08EC02F001C057F08B
:10166A0002C058F035C001F036C002F037C003F0AE
:10167A0038C004F0140E056E000E066E000E076EDA
:10168A00000E086E08EC02F001C053F002C054F0DC
:10169A002DC001F02EC002F02FC003F030C004F0BC
:1016AA00140E056E000E066E000E076E000E086E12
:1016BA0008EC02F001C070F002C071F041C001F004
:1016CA0042C002F043C003F044C004F0140E056E99
:1016DA00000E066E000E076E000E086E08EC02F091
:1016EA0001C055F002C056F039C001F03AC002F00C
:1016FA003BC003F03CC004F0140E056E000E066EEB
:10170A00000E076E000E086E08EC02F001C06AF0C7
:10171A0002C06BF057C027F058C028F0271E281EB9
:10172A00274A282AFF0E2724576E030E2820586EB0
:10173A0055C027F056C028F0271E281E274A282AF7
:10174A00FF0E2724556E030E2820566E0001000155
:10175A0068515326000100016951542229C001F041
:10176A002AC002F02BC003F02CC004F0140E056E40
:10177A00000E066E000E076E000E086E08EC02F0F0
:10178A0001C05BF002C05CF05B5000010001602701
:10179A005C50000100016123000E00010001622378
:1017AA00000E00010001632360C001F061C002F075
:1017BA0062C003F063C004F0180E056E000E066ED8
:1017CA00000E076E000E086E08EC02F001C047F02A
:1017DA0002C048F003C049F004C04AF04750000173
:1017EA000001605F485000010001615B495000013F
:1017FA000001625B4A5000010001635B47C06EF062
:10180A0048C06FF03DC001F03EC002F03FC003F097
:10181A0040C004F0140E056E000E066E000E076E30
:10182A00000E086E08EC02F001C059F002C05AF02E
:10183A0059500001000164275A5000010001652334
:10184A00000E000100016623000E0001000167235B
:10185A0064C001F065C002F066C003F067C004F01E
:10186A00180E056E000E066E000E076E000E086E4C
:10187A0008EC02F001C047F002C048F003C049F08A
:10188A0004C04AF0475000010001645F485000015B
:10189A000001655B495000010001665B4A50000186
:1018AA000001675B47C06CF048C06DF012005D50E4
:1018BA00020AD8B401D001D0B3D15D6601D001D0FB
:1018CA00C7D1AED1ADD1096E000E016E09500A6EB4
:1018DA00000E026E0A50DFEC06F0096E010E016E70
:1018EA0009500A6E000E026E0A50DFEC06F0096E0D
:1018FA00020E016E09500A6E000E026E0A50DFECEB
:10190A0006F0096E030E016E09500A6E000E026E91
:10191A000A50DFEC06F0096E040E016E09500A6ED9
:10192A00000E026E0A50DFEC06F0096E050E016E1B
:10193A0009500A6E000E026E0A50DFEC06F088D1DA
:10194A00096E000E016E09500A6E010E026E0A50EF
:10195A00DFEC06F0096E010E016E09500A6E000EE8
:10196A00026E0A50DFEC06F0096E020E016E095093
:10197A000A6E000E026E0A50DFEC06F0096E030EC4
:10198A00016E09500A6E000E026E0A50DFEC06F074
:10199A00096E040E016E09500A6E000E026E0A509C
:1019AA00DFEC06F0096E050E016E09500A6E000E94
:1019BA00026E0A50DFEC06F04BD1096E000E016E82
:1019CA0009500A6E000E026E0A50DFEC06F0096E2C
:1019DA00010E016E09500A6E010E026E0A50DFEC0A
:1019EA0006F0096E020E016E09500A6E000E026EB2
:1019FA000A50DFEC06F0096E030E016E09500A6EFA
:101A0A00000E026E0A50DFEC06F0096E040E016E3B
:101A1A0009500A6E000E026E0A50DFEC06F0096EDB
:101A2A00050E016E09500A6E000E026E0A50DFECB6
:101A3A0006F00ED1096E000E016E09500A6E000EF4
:101A4A00026E0A50DFEC06F0096E010E016E0950B3
:101A5A000A6E010E026E0A50DFEC06F0096E020EE3
:101A6A00016E09500A6E010E026E0A50DFEC06F092
:101A7A00096E030E016E09500A6E000E026E0A50BC
:101A8A00DFEC06F0096E040E016E09500A6E000EB4
:101A9A00026E0A50DFEC06F0096E050E016E09505F
:101AAA000A6E000E026E0A50DFEC06F0D1D0096E03
:101ABA00000E016E09500A6E000E026E0A50DFEC2B
:101ACA0006F0096E010E016E09500A6E010E026ED1
:101ADA000A50DFEC06F0096E020E016E09500A6E1A
:101AEA00010E026E0A50DFEC06F0096E030E016E5B
:101AFA0009500A6E010E026E0A50DFEC06F0096EFA
:101B0A00040E016E09500A6E000E026E0A50DFECD6
:101B1A0006F0096E050E016E09500A6E000E026E7D
:101B2A000A50DFEC06F094D0096E000E016E0950DF
:101B3A000A6E000E026E0A50DFEC06F0096E010E04
:101B4A00016E09500A6E010E026E0A50DFEC06F0B1
:101B5A00096E020E016E09500A6E010E026E0A50DB
:101B6A00DFEC06F0096E030E016E09500A6E010ED3
:101B7A00026E0A50DFEC06F0096E040E016E09507F
:101B8A000A6E010E026E0A50DFEC06F0096E050EAF
:101B9A00016E09500A6E000E026E0A50DFEC06F062
:101BAA0057D0096E000E016E09500A6E000E026EC1
:101BBA000A50DFEC06F0096E010E016E09500A6E3A
:101BCA00010E026E0A50DFEC06F0096E020E016E7B
:101BDA0009500A6E010E026E0A50DFEC06F0096E19
:101BEA00030E016E09500A6E010E026E0A50DFECF6
:101BFA0006F0096E040E016E09500A6E010E026E9D
:101C0A000A50DFEC06F0096E050E016E09500A6EE5
:101C1A00010E026E0A50DFEC06F01AD019D018D065
:101C2A000850000AD8B44FD6010AD8B489D6030A94
:101C3A00D8B4C3D6010AD8B4FDD6070AD8B437D760
:101C4A00010AD8B471D7030AD8B4ABD701D000D0EF
:101C5A005D50030AD8B401D001D0B4D15D04D8A430
:101C6A0001D001D0C7D1AED1ADD1096E060E016E39
:101C7A0009500A6E000E026E0A50DFEC06F0096E79
:101C8A00070E016E09500A6E000E026E0A50DFEC52
:101C9A0006F0096E080E016E09500A6E000E026EF9
:101CAA000A50DFEC06F0096E090E016E09500A6E41
:101CBA00000E026E0A50DFEC06F0096E0A0E016E83
:101CCA0009500A6E000E026E0A50DFEC06F0096E29
:101CDA000B0E016E09500A6E000E026E0A50DFECFE
:101CEA0006F088D1096E060E016E09500A6E010EC1
:101CFA00026E0A50DFEC06F0096E070E016E0950FB
:101D0A000A6E000E026E0A50DFEC06F0096E080E2B
:101D1A00016E09500A6E000E026E0A50DFEC06F0E0
:101D2A00096E090E016E09500A6E000E026E0A5003
:101D3A00DFEC06F0096E0A0E016E09500A6E000EFB
:101D4A00026E0A50DFEC06F0096E0B0E016E0950A6
:101D5A000A6E000E026E0A50DFEC06F04BD1096ED5
:101D6A00060E016E09500A6E000E026E0A50DFEC72
:101D7A0006F0096E070E016E09500A6E010E026E18
:101D8A000A50DFEC06F0096E080E016E09500A6E61
:101D9A00000E026E0A50DFEC06F0096E090E016EA3
:101DAA0009500A6E000E026E0A50DFEC06F0096E48
:101DBA000A0E016E09500A6E000E026E0A50DFEC1E
:101DCA0006F0096E0B0E016E09500A6E000E026EC5
:101DDA000A50DFEC06F00ED1096E060E016E0950AC
:101DEA000A6E000E026E0A50DFEC06F0096E070E4C
:101DFA00016E09500A6E010E026E0A50DFEC06F0FF
:101E0A00096E080E016E09500A6E010E026E0A5022
:101E1A00DFEC06F0096E090E016E09500A6E000E1B
:101E2A00026E0A50DFEC06F0096E0A0E016E0950C6
:101E3A000A6E000E026E0A50DFEC06F0096E0B0EF7
:101E4A00016E09500A6E000E026E0A50DFEC06F0AF
:101E5A00D1D0096E060E016E09500A6E000E026E8E
:101E6A000A50DFEC06F0096E070E016E09500A6E81
:101E7A00010E026E0A50DFEC06F0096E080E016EC2
:101E8A0009500A6E010E026E0A50DFEC06F0096E66
:101E9A00090E016E09500A6E010E026E0A50DFEC3D
:101EAA0006F0096E0A0E016E09500A6E000E026EE5
:101EBA000A50DFEC06F0096E0B0E016E09500A6E2D
:101ECA00000E026E0A50DFEC06F094D0096E060E80
:101EDA00016E09500A6E000E026E0A50DFEC06F01F
:101EEA00096E070E016E09500A6E010E026E0A5043
:101EFA00DFEC06F0096E080E016E09500A6E010E3B
:101F0A00026E0A50DFEC06F0096E090E016E0950E6
:101F1A000A6E010E026E0A50DFEC06F0096E0A0E16
:101F2A00016E09500A6E010E026E0A50DFEC06F0CD
:101F3A00096E0B0E016E09500A6E000E026E0A50EF
:101F4A00DFEC06F057D0096E060E016E09500A6ED4
:101F5A00000E026E0A50DFEC06F0096E070E016EE3
:101F6A0009500A6E010E026E0A50DFEC06F0096E85
:101F7A00080E016E09500A6E010E026E0A50DFEC5D
:101F8A0006F0096E090E016E09500A6E010E026E04
:101F9A000A50DFEC06F0096E0A0E016E09500A6E4D
:101FAA00010E026E0A50DFEC06F0096E0B0E016E8E
:101FBA0009500A6E010E026E0A50DFEC06F01AD0C2
:101FCA0019D018D00850000AD8B44FD6010AD8B48C
:101FDA0089D6030AD8B4C3D6010AD8B4FDD6070AEB
:101FEA00D8B437D7010AD8B471D7030AD8B4ABD753
:061FFA0001D000D012002E
:020000040020DA
:08000000FFFFFFFFFFFFFFFF00
:020000040030CA
:0E000000FF281923FFBE80FF03C003E003406A
:00000001FF
